{
  "_format": "hh-sol-artifact-1",
  "contractName": "SwapMultihop",
  "sourceName": "contracts/SwapMultiHop.sol",
  "abi": [
    {
      "inputs": [],
      "name": "DAI",
      "outputs": [
        {
          "internalType": "address",
          "name": "",
          "type": "address"
        }
      ],
      "stateMutability": "view",
      "type": "function"
    },
    {
      "inputs": [],
      "name": "USDC",
      "outputs": [
        {
          "internalType": "address",
          "name": "",
          "type": "address"
        }
      ],
      "stateMutability": "view",
      "type": "function"
    },
    {
      "inputs": [],
      "name": "WETH9",
      "outputs": [
        {
          "internalType": "address",
          "name": "",
          "type": "address"
        }
      ],
      "stateMutability": "view",
      "type": "function"
    },
    {
      "inputs": [],
      "name": "poolFee",
      "outputs": [
        {
          "internalType": "uint24",
          "name": "",
          "type": "uint24"
        }
      ],
      "stateMutability": "view",
      "type": "function"
    },
    {
      "inputs": [
        {
          "internalType": "uint256",
          "name": "amountIn",
          "type": "uint256"
        }
      ],
      "name": "swapExactInputMultihop",
      "outputs": [
        {
          "internalType": "uint256",
          "name": "amountOut",
          "type": "uint256"
        }
      ],
      "stateMutability": "nonpayable",
      "type": "function"
    },
    {
      "inputs": [
        {
          "internalType": "uint256",
          "name": "amountOut",
          "type": "uint256"
        },
        {
          "internalType": "uint256",
          "name": "amountInMaximum",
          "type": "uint256"
        }
      ],
      "name": "swapExactOutputMultihop",
      "outputs": [
        {
          "internalType": "uint256",
          "name": "amountIn",
          "type": "uint256"
        }
      ],
      "stateMutability": "nonpayable",
      "type": "function"
    },
    {
      "inputs": [],
      "name": "swapRouter",
      "outputs": [
        {
          "internalType": "contract ISwapRouter",
          "name": "",
          "type": "address"
        }
      ],
      "stateMutability": "view",
      "type": "function"
    }
  ],
  "bytecode": "0x60a060405273e592427a0aece92de3edee1f18e0157c0586156473ffffffffffffffffffffffffffffffffffffffff1660809073ffffffffffffffffffffffffffffffffffffffff1681525034801561005757600080fd5b5060805161119d610096600039600081816101ba0152818161028801528181610346015281816103d0015281816104460152610515015261119d6000f3fe608060405234801561001057600080fd5b506004361061007d5760003560e01c806389a302711161005b57806389a30271146100ee578063c31c9c071461010c578063e0bab4c41461012a578063edd83557146101485761007d565b8063089fe6aa146100825780633b85cf6a146100a05780634aa4a4fc146100d0575b600080fd5b61008a610178565b60405161009791906109d7565b60405180910390f35b6100ba60048036038101906100b59190610a2d565b61017e565b6040516100c79190610a7c565b60405180910390f35b6100d861039e565b6040516100e59190610ad8565b60405180910390f35b6100f66103b6565b6040516101039190610ad8565b60405180910390f35b6101146103ce565b6040516101219190610b52565b60405180910390f35b6101326103f2565b60405161013f9190610ad8565b60405180910390f35b610162600480360381019061015d9190610b6d565b61040a565b60405161016f9190610a7c565b60405180910390f35b610bb881565b60006101a073c02aaa39b223fe8d0a0e5c4f27ead9083c756cc23330856105b7565b6101df73c02aaa39b223fe8d0a0e5c4f27ead9083c756cc27f00000000000000000000000000000000000000000000000000000000000000008461070f565b60006040518060a00160405280736b175474e89094c44da98b954eedeac495271d0f606473a0b86991c6218b36c1d19d4a2e9eb0ce3606eb48610bb873c02aaa39b223fe8d0a0e5c4f27ead9083c756cc2604051602001610244959493929190610c18565b60405160208183030381529060405281526020013373ffffffffffffffffffffffffffffffffffffffff1681526020014281526020018581526020018481525090507f000000000000000000000000000000000000000000000000000000000000000073ffffffffffffffffffffffffffffffffffffffff1663f28c0498826040518263ffffffff1660e01b81526004016102df9190610d9b565b6020604051808303816000875af11580156102fe573d6000803e3d6000fd5b505050506040513d601f19601f820116820180604052508101906103229190610dd2565b9150828210156103975761036c73c02aaa39b223fe8d0a0e5c4f27ead9083c756cc27f0000000000000000000000000000000000000000000000000000000000000000600061070f565b61039673c02aaa39b223fe8d0a0e5c4f27ead9083c756cc23084866103919190610e2e565b610864565b5b5092915050565b73c02aaa39b223fe8d0a0e5c4f27ead9083c756cc281565b73a0b86991c6218b36c1d19d4a2e9eb0ce3606eb4881565b7f000000000000000000000000000000000000000000000000000000000000000081565b736b175474e89094c44da98b954eedeac495271d0f81565b600061042c73c02aaa39b223fe8d0a0e5c4f27ead9083c756cc23330856105b7565b61046b73c02aaa39b223fe8d0a0e5c4f27ead9083c756cc27f00000000000000000000000000000000000000000000000000000000000000008461070f565b60006040518060a0016040528073c02aaa39b223fe8d0a0e5c4f27ead9083c756cc2610bb873a0b86991c6218b36c1d19d4a2e9eb0ce3606eb486064736b175474e89094c44da98b954eedeac495271d0f6040516020016104d0959493929190610c18565b60405160208183030381529060405281526020013373ffffffffffffffffffffffffffffffffffffffff168152602001428152602001848152602001600081525090507f000000000000000000000000000000000000000000000000000000000000000073ffffffffffffffffffffffffffffffffffffffff1663c04b8d59826040518263ffffffff1660e01b815260040161056c9190610ed8565b6020604051808303816000875af115801561058b573d6000803e3d6000fd5b505050506040513d601f19601f820116820180604052508101906105af9190610dd2565b915050919050565b6000808573ffffffffffffffffffffffffffffffffffffffff166323b872dd60e01b8686866040516024016105ee93929190610efa565b604051602081830303815290604052907bffffffffffffffffffffffffffffffffffffffffffffffffffffffff19166020820180517bffffffffffffffffffffffffffffffffffffffffffffffffffffffff83818316178352505050506040516106589190610f6d565b6000604051808303816000865af19150503d8060008114610695576040519150601f19603f3d011682016040523d82523d6000602084013e61069a565b606091505b50915091508180156106c857506000815114806106c75750808060200190518101906106c69190610fbc565b5b5b610707576040517f08c379a00000000000000000000000000000000000000000000000000000000081526004016106fe90611046565b60405180910390fd5b505050505050565b6000808473ffffffffffffffffffffffffffffffffffffffff1663095ea7b360e01b8585604051602401610744929190611066565b604051602081830303815290604052907bffffffffffffffffffffffffffffffffffffffffffffffffffffffff19166020820180517bffffffffffffffffffffffffffffffffffffffffffffffffffffffff83818316178352505050506040516107ae9190610f6d565b6000604051808303816000865af19150503d80600081146107eb576040519150601f19603f3d011682016040523d82523d6000602084013e6107f0565b606091505b509150915081801561081e575060008151148061081d57508080602001905181019061081c9190610fbc565b5b5b61085d576040517f08c379a0000000000000000000000000000000000000000000000000000000008152600401610854906110db565b60405180910390fd5b5050505050565b6000808473ffffffffffffffffffffffffffffffffffffffff1663a9059cbb60e01b8585604051602401610899929190611066565b604051602081830303815290604052907bffffffffffffffffffffffffffffffffffffffffffffffffffffffff19166020820180517bffffffffffffffffffffffffffffffffffffffffffffffffffffffff83818316178352505050506040516109039190610f6d565b6000604051808303816000865af19150503d8060008114610940576040519150601f19603f3d011682016040523d82523d6000602084013e610945565b606091505b509150915081801561097357506000815114806109725750808060200190518101906109719190610fbc565b5b5b6109b2576040517f08c379a00000000000000000000000000000000000000000000000000000000081526004016109a990611147565b60405180910390fd5b5050505050565b600062ffffff82169050919050565b6109d1816109b9565b82525050565b60006020820190506109ec60008301846109c8565b92915050565b600080fd5b6000819050919050565b610a0a816109f7565b8114610a1557600080fd5b50565b600081359050610a2781610a01565b92915050565b60008060408385031215610a4457610a436109f2565b5b6000610a5285828601610a18565b9250506020610a6385828601610a18565b9150509250929050565b610a76816109f7565b82525050565b6000602082019050610a916000830184610a6d565b92915050565b600073ffffffffffffffffffffffffffffffffffffffff82169050919050565b6000610ac282610a97565b9050919050565b610ad281610ab7565b82525050565b6000602082019050610aed6000830184610ac9565b92915050565b6000819050919050565b6000610b18610b13610b0e84610a97565b610af3565b610a97565b9050919050565b6000610b2a82610afd565b9050919050565b6000610b3c82610b1f565b9050919050565b610b4c81610b31565b82525050565b6000602082019050610b676000830184610b43565b92915050565b600060208284031215610b8357610b826109f2565b5b6000610b9184828501610a18565b91505092915050565b60008160601b9050919050565b6000610bb282610b9a565b9050919050565b6000610bc482610ba7565b9050919050565b610bdc610bd782610ab7565b610bb9565b82525050565b60008160e81b9050919050565b6000610bfa82610be2565b9050919050565b610c12610c0d826109b9565b610bef565b82525050565b6000610c248288610bcb565b601482019150610c348287610c01565b600382019150610c448286610bcb565b601482019150610c548285610c01565b600382019150610c648284610bcb565b6014820191508190509695505050505050565b600081519050919050565b600082825260208201905092915050565b60005b83811015610cb1578082015181840152602081019050610c96565b60008484015250505050565b6000601f19601f8301169050919050565b6000610cd982610c77565b610ce38185610c82565b9350610cf3818560208601610c93565b610cfc81610cbd565b840191505092915050565b610d1081610ab7565b82525050565b610d1f816109f7565b82525050565b600060a0830160008301518482036000860152610d428282610cce565b9150506020830151610d576020860182610d07565b506040830151610d6a6040860182610d16565b506060830151610d7d6060860182610d16565b506080830151610d906080860182610d16565b508091505092915050565b60006020820190508181036000830152610db58184610d25565b905092915050565b600081519050610dcc81610a01565b92915050565b600060208284031215610de857610de76109f2565b5b6000610df684828501610dbd565b91505092915050565b7f4e487b7100000000000000000000000000000000000000000000000000000000600052601160045260246000fd5b6000610e39826109f7565b9150610e44836109f7565b9250828203905081811115610e5c57610e5b610dff565b5b92915050565b600060a0830160008301518482036000860152610e7f8282610cce565b9150506020830151610e946020860182610d07565b506040830151610ea76040860182610d16565b506060830151610eba6060860182610d16565b506080830151610ecd6080860182610d16565b508091505092915050565b60006020820190508181036000830152610ef28184610e62565b905092915050565b6000606082019050610f0f6000830186610ac9565b610f1c6020830185610ac9565b610f296040830184610a6d565b949350505050565b600081905092915050565b6000610f4782610c77565b610f518185610f31565b9350610f61818560208601610c93565b80840191505092915050565b6000610f798284610f3c565b915081905092915050565b60008115159050919050565b610f9981610f84565b8114610fa457600080fd5b50565b600081519050610fb681610f90565b92915050565b600060208284031215610fd257610fd16109f2565b5b6000610fe084828501610fa7565b91505092915050565b600082825260208201905092915050565b7f5354460000000000000000000000000000000000000000000000000000000000600082015250565b6000611030600383610fe9565b915061103b82610ffa565b602082019050919050565b6000602082019050818103600083015261105f81611023565b9050919050565b600060408201905061107b6000830185610ac9565b6110886020830184610a6d565b9392505050565b7f5341000000000000000000000000000000000000000000000000000000000000600082015250565b60006110c5600283610fe9565b91506110d08261108f565b602082019050919050565b600060208201905081810360008301526110f4816110b8565b9050919050565b7f5354000000000000000000000000000000000000000000000000000000000000600082015250565b6000611131600283610fe9565b915061113c826110fb565b602082019050919050565b6000602082019050818103600083015261116081611124565b905091905056fea26469706673582212202174fe62a5dc8b2ff8a9f7d548894349323ac223fde4a4890557645f7957206e64736f6c63430008140033",
  "linkReferences": {},
  "deployedLinkReferences": {}
}