{
  "_format": "hh-sol-artifact-1",
  "contractName": "SwapToken",
  "sourceName": "contracts/SwapToken.sol",
  "abi": [
    {
      "inputs": [],
      "name": "poolFee",
      "outputs": [
        {
          "internalType": "uint24",
          "name": "",
          "type": "uint24"
        }
      ],
      "stateMutability": "view",
      "type": "function"
    },
    {
      "inputs": [
        {
          "internalType": "address",
          "name": "token1",
          "type": "address"
        },
        {
          "internalType": "address",
          "name": "token2",
          "type": "address"
        },
        {
          "internalType": "uint256",
          "name": "amountIn",
          "type": "uint256"
        }
      ],
      "name": "swapExactInputSingle",
      "outputs": [
        {
          "internalType": "uint256",
          "name": "amountOut",
          "type": "uint256"
        }
      ],
      "stateMutability": "nonpayable",
      "type": "function"
    },
    {
      "inputs": [
        {
          "internalType": "address",
          "name": "token1",
          "type": "address"
        },
        {
          "internalType": "address",
          "name": "token2",
          "type": "address"
        },
        {
          "internalType": "uint256",
          "name": "amountOut",
          "type": "uint256"
        },
        {
          "internalType": "uint256",
          "name": "amountInMaximum",
          "type": "uint256"
        }
      ],
      "name": "swapExactOutputSingle",
      "outputs": [
        {
          "internalType": "uint256",
          "name": "amountIn",
          "type": "uint256"
        }
      ],
      "stateMutability": "nonpayable",
      "type": "function"
    },
    {
      "inputs": [],
      "name": "swapRouter",
      "outputs": [
        {
          "internalType": "contract ISwapRouter",
          "name": "",
          "type": "address"
        }
      ],
      "stateMutability": "view",
      "type": "function"
    }
  ],
  "bytecode": "0x60a06040527fe592427a0aece92de3edee1f18e0157c0586156400000000000000000000000060805234801561003457600080fd5b5060805160601c6109ac61006a6000398060d1528061016752806101fe528061023c5280610272528061030852506109ac6000f3fe608060405234801561001057600080fd5b506004361061004c5760003560e01c8063089fe6aa14610051578063bc96faa91461006f578063c31c9c071461008f578063ceb92012146100a4575b600080fd5b6100596100b7565b604051610066919061095d565b60405180910390f35b61008261007d366004610877565b6100bd565b604051610066919061096d565b61009761023a565b6040516100669190610934565b6100826100b236600461083c565b61025e565b610bb881565b60006100cb85333085610398565b6100f6857f000000000000000000000000000000000000000000000000000000000000000084610523565b60408051610100810182526001600160a01b0380881682528681166020830152610bb88284015233606083015242608083015260a0820186905260c08201859052600060e083015291517fdb3e219800000000000000000000000000000000000000000000000000000000815290917f0000000000000000000000000000000000000000000000000000000000000000169063db3e21989061019c908490600401610948565b602060405180830381600087803b1580156101b657600080fd5b505af11580156101ca573d6000803e3d6000fd5b505050506040513d601f19601f820116820180604052508101906101ee91906108b8565b91508282101561023157610224867f00000000000000000000000000000000000000000000000000000000000000006000610523565b61023186338486036106a5565b50949350505050565b7f000000000000000000000000000000000000000000000000000000000000000081565b600061026c84333085610398565b610297847f000000000000000000000000000000000000000000000000000000000000000084610523565b60408051610100810182526001600160a01b0380871682528581166020830152610bb88284015233606083015242608083015260a08201859052600060c0830181905260e083015291517f414bf38900000000000000000000000000000000000000000000000000000000815290917f0000000000000000000000000000000000000000000000000000000000000000169063414bf3899061033d908490600401610948565b602060405180830381600087803b15801561035757600080fd5b505af115801561036b573d6000803e3d6000fd5b505050506040513d601f19601f8201168201806040525081019061038f91906108b8565b95945050505050565b604080516001600160a01b0385811660248301528481166044830152606480830185905283518084039091018152608490920183526020820180516001600160e01b03167f23b872dd00000000000000000000000000000000000000000000000000000000178152925182516000948594938a169392918291908083835b602083106104355780518252601f199092019160209182019101610416565b6001836020036101000a0380198251168184511680821785525050505050509050019150506000604051808303816000865af19150503d8060008114610497576040519150601f19603f3d011682016040523d82523d6000602084013e61049c565b606091505b50915091508180156104ca5750805115806104ca57508080602001905160208110156104c757600080fd5b50515b61051b576040805162461bcd60e51b815260206004820152600360248201527f5354460000000000000000000000000000000000000000000000000000000000604482015290519081900360640190fd5b505050505050565b604080516001600160a01b038481166024830152604480830185905283518084039091018152606490920183526020820180516001600160e01b03167f095ea7b3000000000000000000000000000000000000000000000000000000001781529251825160009485949389169392918291908083835b602083106105b85780518252601f199092019160209182019101610599565b6001836020036101000a0380198251168184511680821785525050505050509050019150506000604051808303816000865af19150503d806000811461061a576040519150601f19603f3d011682016040523d82523d6000602084013e61061f565b606091505b509150915081801561064d57508051158061064d575080806020019051602081101561064a57600080fd5b50515b61069e576040805162461bcd60e51b815260206004820152600260248201527f5341000000000000000000000000000000000000000000000000000000000000604482015290519081900360640190fd5b5050505050565b604080516001600160a01b038481166024830152604480830185905283518084039091018152606490920183526020820180516001600160e01b03167fa9059cbb000000000000000000000000000000000000000000000000000000001781529251825160009485949389169392918291908083835b6020831061073a5780518252601f19909201916020918201910161071b565b6001836020036101000a0380198251168184511680821785525050505050509050019150506000604051808303816000865af19150503d806000811461079c576040519150601f19603f3d011682016040523d82523d6000602084013e6107a1565b606091505b50915091508180156107cf5750805115806107cf57508080602001905160208110156107cc57600080fd5b50515b61069e576040805162461bcd60e51b815260206004820152600260248201527f5354000000000000000000000000000000000000000000000000000000000000604482015290519081900360640190fd5b80356001600160a01b038116811461083757600080fd5b919050565b600080600060608486031215610850578283fd5b61085984610820565b925061086760208501610820565b9150604084013590509250925092565b6000806000806080858703121561088c578081fd5b61089585610820565b93506108a360208601610820565b93969395505050506040820135916060013590565b6000602082840312156108c9578081fd5b5051919050565b6001600160a01b0380825116835280602083015116602084015262ffffff60408301511660408401528060608301511660608401526080820151608084015260a082015160a084015260c082015160c08401528060e08301511660e0840152505050565b6001600160a01b0391909116815260200190565b610100810161095782846108d0565b92915050565b62ffffff91909116815260200190565b9081526020019056fea264697066735822122032b2328dc205f43828cd36e5b1931875bfa457df18c8e563eb998760e9133e0964736f6c63430007060033",
  "linkReferences": {},
  "deployedLinkReferences": {}
}