{
  "_format": "hh-sol-artifact-1",
  "contractName": "SwapToken",
  "sourceName": "contracts/SwapToken.sol",
  "abi": [
    {
      "inputs": [],
      "name": "DAI",
      "outputs": [
        {
          "internalType": "address",
          "name": "",
          "type": "address"
        }
      ],
      "stateMutability": "view",
      "type": "function"
    },
    {
      "inputs": [],
      "name": "USDC",
      "outputs": [
        {
          "internalType": "address",
          "name": "",
          "type": "address"
        }
      ],
      "stateMutability": "view",
      "type": "function"
    },
    {
      "inputs": [],
      "name": "WETH9",
      "outputs": [
        {
          "internalType": "address",
          "name": "",
          "type": "address"
        }
      ],
      "stateMutability": "view",
      "type": "function"
    },
    {
      "inputs": [],
      "name": "poolFee",
      "outputs": [
        {
          "internalType": "uint24",
          "name": "",
          "type": "uint24"
        }
      ],
      "stateMutability": "view",
      "type": "function"
    },
    {
      "inputs": [
        {
          "internalType": "uint256",
          "name": "amountIn",
          "type": "uint256"
        }
      ],
      "name": "swapExactInputSingle",
      "outputs": [
        {
          "internalType": "uint256",
          "name": "amountOut",
          "type": "uint256"
        }
      ],
      "stateMutability": "nonpayable",
      "type": "function"
    },
    {
      "inputs": [
        {
          "internalType": "uint256",
          "name": "amountOut",
          "type": "uint256"
        },
        {
          "internalType": "uint256",
          "name": "amountInMaximum",
          "type": "uint256"
        }
      ],
      "name": "swapExactOutputSingle",
      "outputs": [
        {
          "internalType": "uint256",
          "name": "amountIn",
          "type": "uint256"
        }
      ],
      "stateMutability": "nonpayable",
      "type": "function"
    },
    {
      "inputs": [],
      "name": "swapRouter",
      "outputs": [
        {
          "internalType": "contract ISwapRouter",
          "name": "",
          "type": "address"
        }
      ],
      "stateMutability": "view",
      "type": "function"
    }
  ],
  "bytecode": "0x60a06040527fe592427a0aece92de3edee1f18e0157c0586156400000000000000000000000060805234801561003457600080fd5b5060805160601c610a9661006b6000398061015a528061020a52806102ba528061031852806103c8528061047b5250610a966000f3fe608060405234801561001057600080fd5b506004361061007d5760003560e01c806389a302711161005b57806389a30271146100d5578063c31c9c07146100dd578063c4b69a18146100e5578063e0bab4c4146100f85761007d565b8063089fe6aa146100825780634aa4a4fc146100a057806373bd43ad146100b5575b600080fd5b61008a610100565b6040516100979190610a47565b60405180910390f35b6100a8610106565b6040516100979190610a1e565b6100c86100c3366004610969565b61011e565b6040516100979190610a57565b6100a86102a0565b6100a86102b8565b6100c86100f3366004610999565b6102dc565b6100a86104c9565b610bb881565b73c02aaa39b223fe8d0a0e5c4f27ead9083c756cc281565b600061014073c02aaa39b223fe8d0a0e5c4f27ead9083c756cc23330856104e1565b61017f73c02aaa39b223fe8d0a0e5c4f27ead9083c756cc27f00000000000000000000000000000000000000000000000000000000000000008461066c565b604080516101008101825273c02aaa39b223fe8d0a0e5c4f27ead9083c756cc28152736b175474e89094c44da98b954eedeac495271d0f6020820152610bb88183015233606082015242608082015260a08101849052600060c0820181905260e082015290517f414bf3890000000000000000000000000000000000000000000000000000000081527f00000000000000000000000000000000000000000000000000000000000000006001600160a01b03169063414bf38990610247908490600401610a32565b602060405180830381600087803b15801561026157600080fd5b505af1158015610275573d6000803e3d6000fd5b505050506040513d601f19601f820116820180604052508101906102999190610981565b9392505050565b73a0b86991c6218b36c1d19d4a2e9eb0ce3606eb4881565b7f000000000000000000000000000000000000000000000000000000000000000081565b60006102fe73c02aaa39b223fe8d0a0e5c4f27ead9083c756cc23330856104e1565b61033d73c02aaa39b223fe8d0a0e5c4f27ead9083c756cc27f00000000000000000000000000000000000000000000000000000000000000008461066c565b604080516101008101825273c02aaa39b223fe8d0a0e5c4f27ead9083c756cc28152736b175474e89094c44da98b954eedeac495271d0f6020820152610bb88183015233606082015242608082015260a0810185905260c08101849052600060e082015290517fdb3e21980000000000000000000000000000000000000000000000000000000081527f00000000000000000000000000000000000000000000000000000000000000006001600160a01b03169063db3e219890610405908490600401610a32565b602060405180830381600087803b15801561041f57600080fd5b505af1158015610433573d6000803e3d6000fd5b505050506040513d601f19601f820116820180604052508101906104579190610981565b9150828210156104c2576104a173c02aaa39b223fe8d0a0e5c4f27ead9083c756cc27f0000000000000000000000000000000000000000000000000000000000000000600061066c565b6104c273c02aaa39b223fe8d0a0e5c4f27ead9083c756cc2338486036107ee565b5092915050565b736b175474e89094c44da98b954eedeac495271d0f81565b604080516001600160a01b0385811660248301528481166044830152606480830185905283518084039091018152608490920183526020820180516001600160e01b03167f23b872dd00000000000000000000000000000000000000000000000000000000178152925182516000948594938a169392918291908083835b6020831061057e5780518252601f19909201916020918201910161055f565b6001836020036101000a0380198251168184511680821785525050505050509050019150506000604051808303816000865af19150503d80600081146105e0576040519150601f19603f3d011682016040523d82523d6000602084013e6105e5565b606091505b5091509150818015610613575080511580610613575080806020019051602081101561061057600080fd5b50515b610664576040805162461bcd60e51b815260206004820152600360248201527f5354460000000000000000000000000000000000000000000000000000000000604482015290519081900360640190fd5b505050505050565b604080516001600160a01b038481166024830152604480830185905283518084039091018152606490920183526020820180516001600160e01b03167f095ea7b3000000000000000000000000000000000000000000000000000000001781529251825160009485949389169392918291908083835b602083106107015780518252601f1990920191602091820191016106e2565b6001836020036101000a0380198251168184511680821785525050505050509050019150506000604051808303816000865af19150503d8060008114610763576040519150601f19603f3d011682016040523d82523d6000602084013e610768565b606091505b5091509150818015610796575080511580610796575080806020019051602081101561079357600080fd5b50515b6107e7576040805162461bcd60e51b815260206004820152600260248201527f5341000000000000000000000000000000000000000000000000000000000000604482015290519081900360640190fd5b5050505050565b604080516001600160a01b038481166024830152604480830185905283518084039091018152606490920183526020820180516001600160e01b03167fa9059cbb000000000000000000000000000000000000000000000000000000001781529251825160009485949389169392918291908083835b602083106108835780518252601f199092019160209182019101610864565b6001836020036101000a0380198251168184511680821785525050505050509050019150506000604051808303816000865af19150503d80600081146108e5576040519150601f19603f3d011682016040523d82523d6000602084013e6108ea565b606091505b5091509150818015610918575080511580610918575080806020019051602081101561091557600080fd5b50515b6107e7576040805162461bcd60e51b815260206004820152600260248201527f5354000000000000000000000000000000000000000000000000000000000000604482015290519081900360640190fd5b60006020828403121561097a578081fd5b5035919050565b600060208284031215610992578081fd5b5051919050565b600080604083850312156109ab578081fd5b50508035926020909101359150565b6001600160a01b0380825116835280602083015116602084015262ffffff60408301511660408401528060608301511660608401526080820151608084015260a082015160a084015260c082015160c08401528060e08301511660e0840152505050565b6001600160a01b0391909116815260200190565b6101008101610a4182846109ba565b92915050565b62ffffff91909116815260200190565b9081526020019056fea26469706673582212203325e60da7f915e1189dabef2bb902dfc5b4828f95b5edc3956915a019244a0c64736f6c63430007060033",
  "linkReferences": {},
  "deployedLinkReferences": {}
}