{
  "_format": "hh-sol-artifact-1",
  "contractName": "UserStorageData",
  "sourceName": "contracts/storeUserData.sol",
  "abi": [
    {
      "inputs": [
        {
          "internalType": "address",
          "name": "poolAddress",
          "type": "address"
        },
        {
          "internalType": "address",
          "name": "tokenAddress0",
          "type": "address"
        },
        {
          "internalType": "address",
          "name": "tokenAddress1",
          "type": "address"
        }
      ],
      "name": "addToBlockchain",
      "outputs": [],
      "stateMutability": "nonpayable",
      "type": "function"
    },
    {
      "inputs": [],
      "name": "getAllTransactions",
      "outputs": [
        {
          "components": [
            {
              "internalType": "address",
              "name": "caller",
              "type": "address"
            },
            {
              "internalType": "address",
              "name": "poolAddress",
              "type": "address"
            },
            {
              "internalType": "address",
              "name": "tokenAddress0",
              "type": "address"
            },
            {
              "internalType": "address",
              "name": "tokenAddress1",
              "type": "address"
            }
          ],
          "internalType": "struct UserStorageData.TransactionStruck[]",
          "name": "",
          "type": "tuple[]"
        }
      ],
      "stateMutability": "view",
      "type": "function"
    }
  ],
  "bytecode": "0x608060405234801561001057600080fd5b506103df806100206000396000f3fe608060405234801561001057600080fd5b50600436106100365760003560e01c806327506f531461003b578063890cb4e914610059575b600080fd5b6100436101a3565b604051610050919061031f565b60405180910390f35b6101a1610067366004610359565b6040805160808101825233815273ffffffffffffffffffffffffffffffffffffffff948516602082019081529385169181019182529184166060830190815260008054600181018255908052925160049093027f290decd9548b62a8d60345a988386fc84ba6bc95484008f6362f93160ef3e563810180549487167fffffffffffffffffffffffff000000000000000000000000000000000000000095861617905593517f290decd9548b62a8d60345a988386fc84ba6bc95484008f6362f93160ef3e5648501805491871691851691909117905590517f290decd9548b62a8d60345a988386fc84ba6bc95484008f6362f93160ef3e56584018054918616918416919091179055517f290decd9548b62a8d60345a988386fc84ba6bc95484008f6362f93160ef3e5669092018054929093169116179055565b005b60606000805480602002602001604051908101604052809291908181526020016000905b8282101561023a5760008481526020908190206040805160808101825260048602909201805473ffffffffffffffffffffffffffffffffffffffff9081168452600180830154821685870152600283015482169385019390935260039091015416606083015290835290920191016101c7565b50505050905090565b600073ffffffffffffffffffffffffffffffffffffffff82165b92915050565b61026c81610243565b82525050565b805160808301906102838482610263565b5060208201516102966020850182610263565b5060408201516102a96040850182610263565b5060608201516102bc6060850182610263565b50505050565b60006102ce8383610272565b505060800190565b60006102e0825190565b80845260209384019383018060005b8381101561031457815161030388826102c2565b9750602083019250506001016102ef565b509495945050505050565b6020808252810161033081846102d6565b9392505050565b61034081610243565b811461034b57600080fd5b50565b803561025d81610337565b60008060006060848603121561037157610371600080fd5b600061037d868661034e565b935050602061038e8682870161034e565b925050604061039f8682870161034e565b915050925092509256fea2646970667358221220dabbfdb8a53b578168d91245a3749d2f85d0c3960fcff3faea37d5353dc1ad4264736f6c63430008110033",
  "linkReferences": {},
  "deployedLinkReferences": {}
}